{
  "_format": "hh-sol-artifact-1",
  "contractName": "DefiCV",
  "sourceName": "contracts/DefiCV.sol",
  "abi": [
    {
      "inputs": [
        {
          "internalType": "string",
          "name": "CID",
          "type": "string"
        },
        {
          "internalType": "string",
          "name": "time",
          "type": "string"
        }
      ],
      "name": "addCV",
      "outputs": [],
      "stateMutability": "nonpayable",
      "type": "function"
    },
    {
      "inputs": [
        {
          "internalType": "address",
          "name": "addr",
          "type": "address"
        }
      ],
      "name": "getUser",
      "outputs": [
        {
          "internalType": "string[2][]",
          "name": "",
          "type": "string[2][]"
        }
      ],
      "stateMutability": "view",
      "type": "function"
    },
    {
      "inputs": [],
      "name": "getUserAdresses",
      "outputs": [
        {
          "internalType": "address[]",
          "name": "",
          "type": "address[]"
        }
      ],
      "stateMutability": "view",
      "type": "function"
    }
  ],
  "bytecode": "0x608060405234801561001057600080fd5b50610aef806100206000396000f3fe608060405234801561001057600080fd5b50600436106100415760003560e01c80631c9b9923146100465780636f77926b14610062578063b1d5438314610092575b600080fd5b610060600480360381019061005b91906105cb565b6100b0565b005b61007c600480360381019061007791906105a2565b6101ed565b6040516100899190610829565b60405180910390f35b61009a61033d565b6040516100a79190610807565b60405180910390f35b60008060003373ffffffffffffffffffffffffffffffffffffffff1673ffffffffffffffffffffffffffffffffffffffff16815260200190815260200160002080549050141561015e576001339080600181540180825580915050600190039060005260206000200160009091909190916101000a81548173ffffffffffffffffffffffffffffffffffffffff021916908373ffffffffffffffffffffffffffffffffffffffff1602179055505b6000803373ffffffffffffffffffffffffffffffffffffffff1673ffffffffffffffffffffffffffffffffffffffff16815260200190815260200160002060405180604001604052808481526020018381525090806001815401808255809150506001900390600052602060002090600202016000909190919091509060026101e89291906103cb565b505050565b60606000808373ffffffffffffffffffffffffffffffffffffffff1673ffffffffffffffffffffffffffffffffffffffff168152602001908152602001600020805480602002602001604051908101604052809291908181526020016000905b828210156103325783829060005260206000209060020201600280602002604051908101604052809291906000905b8282101561031f578382018054610292906109d0565b80601f01602080910402602001604051908101604052809291908181526020018280546102be906109d0565b801561030b5780601f106102e05761010080835404028352916020019161030b565b820191906000526020600020905b8154815290600101906020018083116102ee57829003601f168201915b50505050508152602001906001019061027c565b505050508152602001906001019061024d565b505050509050919050565b606060018054806020026020016040519081016040528092919081815260200182805480156103c157602002820191906000526020600020905b8160009054906101000a900473ffffffffffffffffffffffffffffffffffffffff1673ffffffffffffffffffffffffffffffffffffffff1681526020019060010190808311610377575b5050505050905090565b826002810192821561040d579160200282015b8281111561040c5782518290805190602001906103fc92919061041e565b50916020019190600101906103de565b5b50905061041a91906104a4565b5090565b82805461042a906109d0565b90600052602060002090601f01602090048101928261044c5760008555610493565b82601f1061046557805160ff1916838001178555610493565b82800160010185558215610493579182015b82811115610492578251825591602001919060010190610477565b5b5090506104a091906104c8565b5090565b5b808211156104c457600081816104bb91906104e5565b506001016104a5565b5090565b5b808211156104e15760008160009055506001016104c9565b5090565b5080546104f1906109d0565b6000825580601f106105035750610522565b601f01602090049060005260206000209081019061052191906104c8565b5b50565b600061053861053384610870565b61084b565b90508281526020810184848401111561055057600080fd5b61055b84828561098e565b509392505050565b60008135905061057281610aa2565b92915050565b600082601f83011261058957600080fd5b8135610599848260208601610525565b91505092915050565b6000602082840312156105b457600080fd5b60006105c284828501610563565b91505092915050565b600080604083850312156105de57600080fd5b600083013567ffffffffffffffff8111156105f857600080fd5b61060485828601610578565b925050602083013567ffffffffffffffff81111561062157600080fd5b61062d85828601610578565b9150509250929050565b60006106438383610677565b60208301905092915050565b600061065b8383610759565b905092915050565b600061066f83836107ce565b905092915050565b6106808161095c565b82525050565b6000610691826108cb565b61069b818561091e565b93506106a6836108a1565b8060005b838110156106d75781516106be8882610637565b97506106c9836108f7565b9250506001810190506106aa565b5085935050505092915050565b60006106ef826108d6565b6106f9818561092f565b93508360208202850161070b856108b1565b8060005b858110156107475784840389528151610728858261064f565b945061073383610904565b925060208a0199505060018101905061070f565b50829750879550505050505092915050565b6000610764826108e1565b61076e8185610940565b935083602082028501610780856108c1565b8060005b858110156107bc578484038952815161079d8582610663565b94506107a883610911565b925060208a01995050600181019050610784565b50829750879550505050505092915050565b60006107d9826108ec565b6107e3818561094b565b93506107f381856020860161099d565b6107fc81610a91565b840191505092915050565b600060208201905081810360008301526108218184610686565b905092915050565b6000602082019050818103600083015261084381846106e4565b905092915050565b6000610855610866565b90506108618282610a02565b919050565b6000604051905090565b600067ffffffffffffffff82111561088b5761088a610a62565b5b61089482610a91565b9050602081019050919050565b6000819050602082019050919050565b6000819050602082019050919050565b6000819050919050565b600081519050919050565b600081519050919050565b600060029050919050565b600081519050919050565b6000602082019050919050565b6000602082019050919050565b6000602082019050919050565b600082825260208201905092915050565b600082825260208201905092915050565b600081905092915050565b600082825260208201905092915050565b60006109678261096e565b9050919050565b600073ffffffffffffffffffffffffffffffffffffffff82169050919050565b82818337600083830152505050565b60005b838110156109bb5780820151818401526020810190506109a0565b838111156109ca576000848401525b50505050565b600060028204905060018216806109e857607f821691505b602082108114156109fc576109fb610a33565b5b50919050565b610a0b82610a91565b810181811067ffffffffffffffff82111715610a2a57610a29610a62565b5b80604052505050565b7f4e487b7100000000000000000000000000000000000000000000000000000000600052602260045260246000fd5b7f4e487b7100000000000000000000000000000000000000000000000000000000600052604160045260246000fd5b6000601f19601f8301169050919050565b610aab8161095c565b8114610ab657600080fd5b5056fea26469706673582212206dc4ce0db5097c6a7e1763c24b2860b56a7a79e05b3b750e38a4354e35964cda64736f6c63430008040033",
  "linkReferences": {},
  "deployedLinkReferences": {}
}